:030000000200A853
:0C00A800787FE4F6D8FD758107020003A4
:0A00B4003F065B4F666D7D077F6F0E
:10008F00D3EF9401EE9400400F7D027CEFDCFEDD98
:08009F00FCEF1F70EB1E80E86E
:0100A7002236
:10003800C293E4FEEEC39408748094805019EF30A4
:10004800E704D2918002C291EF25E0FFD290000030
:10005800C29000000E80DDD2937F017E0002008FE7
:10006800E4FFC293FEEEC39408748094805015EFA9
:1000780025E0FFA292E4334207D2900000C290002C
:06008800000E80E1D2939E
:01008E00224F
:100003007B01E4C290F5A0E4FAEAC3940A748094F5
:100013008050F4AF021200387FF47E0112008F1279
:100023000068AB07EB9000B493F5A07FF47E011258
:05003300008F0A80D4DB
:00000001FF
