:030000000200A05B
:0C00A000787FE4F6D8FD758107020003AC
:0A00AC003F065B4F666D7D077F6F16
:10008700D3EF9401EE9400400F7D027CEFDCFEDDA0
:08009700FCEF1F70EB1E80E876
:01009F00223E
:10005F00E4FF2093FDE4FEEEC39408748094805077
:10006F00133090FD2090FDEF25E0FFA291E4334285
:07007F00070E80E33093FD42
:010086002257
:100036002093FDE4FEEEC39408748094805016303D
:1000460090FD2090FDEF25E0FF30E704D29280027C
:08005600C2920E80E03093FD20
:01005E00227F
:100003007B01E4F5A0E4FAEAC3940A748094805077
:10001300F412005FAB07EB9000AC93F5A07FF47E86
:1000230001120087AF021200367FF47E01120087AF
:030033000A80D46C
:00000001FF
